:03000000020100FA
:03000B0002075099
:03002300020300D5
:10010000758700C2B6D2AFD2A9758A00758C067504
:100110008F0075940675920075885075985075C655
:100120000175C702D2B0D2B1758DDC758920D29C21
:10013000D2ACC2987550FF7530017531057532FF2C
:100140007533CCD2B6C2C2D2B4D2B5D2B77558A22A
:100150001207007558A01207007558C81207000052
:100160000075584012070075582512070075588110
:1001700012070075581512070075582F12070075E1
:1001800058AF120700C2C27558B01207001206001D
:10019000C2C27558B1120700120600C2C27558B229
:1001A000120700120600C2C27558B31207001206E9
:1001B00000C2C27558B4120700120600C2C27558B8
:1001C000B5120700120600C2C27558B61207001217
:1001D0000600C2C27558B7120700120600853040EB
:1001E000853141853242853343E550548060EE7558
:1001F0005000C2C2854058120700854158120700BE
:100200008542581207008533571206750201DD2218
:10030000C0E0C0F0C083C082A2985018C298E550E7
:100310004430F9E599F7F599E55004F550B4040433
:0F0320004480F550C299D082D083D0F0D0E03223
:1006000075597C755600755700120650120675E52F
:0E0610005904F559E55604F556600280EC22B7
:10065000C2C2E556540FF558120700E55654F0C4CF
:080660002410F55812070022D6
:09067500D2C28557581207002279
:0C070000C2B4C2B5855890D2B5D2B42264
:10075000C0E0C082C0838000E55404F5546002808C
:100760000F755482E5557005755501800375550068
:07077000D083D082D0E032FB
:00000001FF
